:100000006F008078000000004A0100004E010000EF
:1000100000000000000000000000000000000000E0
:1000200000000000000000000000000000000000D0
:100030005607000000000000580700000000000004
:100040005A0700005C0700005E0700006007000020
:1000500062070000640700006607000068070000F0
:100060006A0700006C0700006E07000070070000C0
:100070007207000074070000760700007807000090
:100080007A0700007C0700007E0700008007000060
:1000900082070000840700008607000000000000BF
:1000A000511126C022C206C4828282441244A24058
:1000B000310182802A86014593F6150091C232955E
:1000C00085810606F5F9828000000000634E050276
:1000D00063C305042E86AA857D5515C285466378BF
:1000E000B6006356C00006068606E36CB6FE014500
:1000F00063E4C500918D558D85820582F5FA828075
:100100008682C93F2E8582823305A04063D70500D1
:10011000B305B040C1B7B305B0408682653F330533
:10012000A0408282868263C70500634905005D376F
:100130002E858282B305B040E35B05FE3305A04007
:10014000513F3305B040828200007300203001A08F
:10015000EFF21FF51165111185451305050202C067
:1001600002C202C402C602C802CA02CCEF00700278
:10017000930700027C80371401408D473EC28A8578
:10018000E147130504403EC4EF00C0679307000435
:100190007C808A859147130504403EC4EF00806649
:1001A000F16737440140938707203EC66C00B707CC
:1001B0000C00130504803ECA02C8231C0100EF0096
:1001C000207F854513050480EF00500B7101F1BDC0
:1001D000EFF21FED5111FD577C8089473EC28A85A1
:1001E000C147371501403EC423110100EF00806173
:1001F000310165BDEFF2DFEA5111FD577C8089477F
:100200003EC28A859147371501403EC42311010043
:10021000EF00405F310151BDEFF29FE82A863715AC
:100220000140C14513050540EF00A06BBDBDEFF2D5
:100230003FE72A8637150140914513050580EF00F9
:10024000406AA5B5EFF2DFE52A86371501408545FE
:1002500013050540EF00E06889BDEFF27FE42A86D0
:10026000371501409305000813050540EF0060674E
:100270002DBDEFF2FFE22A863715014089451305AF
:100280000580EF00006615B5EFF29FE12A8637156D
:100290000140A14513050540EF00A06439B5EFF218
:1002A0003FE05111854513054003EF00806E9937FB
:1002B0003714014099478A857C80C14489471305DA
:1002C00004803EC226C4231101002D2B0545A93709
:1002D000014545371307D00989478A85130504402E
:1002E00078803EC226C4392B054591370545693FC4
:1002F0000145893F01459537310145BBEFF25FDA92
:1003000071112AC00545093F05451537D13582458C
:1003100037150140EF00805D054581370545913F68
:1003200005450D370145393FF1351101BDBBEFF2F0
:100330003FD72A840545CD350545D53D513D93151B
:100340000401C1813715014055230545393705455D
:100350000D370145393F793D89BBEFF27FD42A84BF
:1003600005455D3D0545E135A53593150401C18180
:1003700037150140A52B0545CD350145F93D9D3D7E
:100380002DB3EFF2FFD12A841375F50F4D371355B6
:1003900084001375F50FD13737150140014691459B
:1003A000130505403D2B11B3EFF29FCFD93F99358F
:1003B0000545B53D0545C93D0145B93D37150140E8
:1003C000292B2A840545893D2285C5B1EFF25FCDF1
:1003D00071112A8405452EC0453D0545353D8245B0
:1003E0002E85293F2285713F3135014589350145EB
:1003F000613D0545513D05451D3D11017DB1EFF2C2
:100400003FCA71111564AA842EC013055455930573
:10041000A00A6D3F0D65930550051305A5AA7D370C
:10042000130554559305000A553782472685BE8526
:10043000713F3145EF00C06A110185B9EFF25FC627
:100440001564130554559305A00A49378D64138527
:10045000A4AA930550059D3F130554559305000824
:10046000B537130554559305A00A8D371385A4AAF3
:1004700093055005A13FC14513055455813F130510
:100480006009EF00806915B1EFF29FC1711141461B
:100490008A852A84EF00B077824763868700B70792
:1004A00000016363F5007D55110101B18147138798
:1004B0008180D1463306F700230006008507E39BC1
:1004C000D7FE8280EFF2DFBDD53737440140930479
:1004D0000480930500022685E92365DD1305048069
:1004E0006D2B131485016184B547E300F4FE138579
:1004F0008180EF0010582947AA846315E4006376D1
:10050000A4026D37EF0010522295030715001377F0
:10051000770945DF13858180294726956375970004
:1005200071371385818000A14DB741B6EFF25FB7F7
:1005300011110945752E452A952B71651305052066
:10054000112D3931A93B1305803EC12B0144938401
:1005500081808D3F8387040002C002C22314010002
:1005600013072005638DE704634FF70013070004AA
:100570006382E70613074004638AE7083715000023
:100580001305C54449A8130760056389E7081307E5
:100590007005E395E7FE0D46938514000A85EF008C
:1005A000704E0A85D535FD57E30AF5FC9307F00F29
:1005B000E3C6A7FC93150501C181228589352285F3
:1005C000E533AA85371500001305C545EF00103C3B
:1005D000050441B71D46938514000A85EF00904A33
:1005E0000A855D35FD572A84E30AF5F8B715000042
:1005F0002A86938505456800EF00703B371500009B
:100600006C0013058545EF007038A1B7053D37151F
:10061000000013054546EF00F03B25BF2945F529AD
:100620003715000013058546FDB7B71702409843FC
:10063000B706FFFC1367170098C3D843758FD8C35C
:100640009843B706F7FEFD16758F98C39843B70613
:10065000FCFFFD16758F98C3D843C176FD16758FC4
:10066000D8C337079F0098C7984F1367070298CFE2
:100670003717014003260740930507401376F6F02D
:100680002320C74003260740136606082320C740DF
:10069000094798C9372702401043719A10C3104385
:1006A0001366160010C3D843D8C3D843F98ED4C3F9
:1006B000D843B7060001D8C39843558F98C39843D1
:1006C00093166700E3DD06FED843B7160240719B20
:1006D000D8C3D84313672700D8C32147DC42B18B66
:1006E000E39EE7FE8280EFF2BF9B371702405C4338
:1006F000370400209146B18B130404016385D700B1
:10070000A1466382D704B7376E01938707601CC088
:10071000B7160240DC420840918313F7F700B70791
:10072000002093870700BA978C23DC4293F5F50FDE
:1007300093F707083357B50081E7EFF0BF992A8791
:1007400018C06FF09F965C43B777DC02938707C0B1
:100750007DBF01A001A001A001A001A001A001A0F6
:1007600001A001A001A001A001A001A001A001A081
:1007700001A001A001A001A001A001A001A001A071
:1007800001A001A001A001A09701002093810128F0
:10079000138181DF17150000130505E1970500207F
:1007A000938545861386818063FAC5008322050000
:1007B00023A0550011059105E3EAC5FE138581804C
:1007C000938541826377B500232005001105E36D11
:1007D000B5FE93020008739002308D427390428000
:1007E000970200009382028293E2320073905230AB
:1007F000EFF0BFE397020000938282D3739012342C
:10080000730020309C45611122C226C013F70701F6
:1008100013F3F70001C7D8413363E3009221137744
:10082000F60F29C7832305000147130480029304B0
:1008300080048546B395E600B376B6006392D50290
:1008400093122700BD46B396560093C6F6FFB3F346
:100850007600B3125300B3E37200639787064CC966
:100860000507A146E317D7FC232075001307F00FF7
:100870006378C70483234500A146130480029304D0
:1008800080040547B312D700337756006394E20221
:10089000139726000117BD45B395E50093C5F5FFF5
:1008A000B3F375003317E300B363770063928702F5
:1008B000232A550085064147E395E6FC232275006F
:1008C0001244824421018280E39C97F80CC949BFFD
:1008D000E39297FE23285500F1BF08454205418168
:1008E000828019C20CC982804CC982804CC582802A
:1008F00023AEA1808280EFF2AFFA371702405C434B
:1009000091462A84B18B6385D700A146638DD706B3
:10091000B7376E01938707601CC0B7160240DC42F0
:10092000918313F7F700B707002093878702BA97E0
:100930008C23DC42184093F5F50F93F707083355E5
:10094000B70081E73A85EFF0EFF848C008C448C423
:10095000B7170240DC43AD83FD8B13D737008A07FE
:10096000F18BD98F93F637010D476373D700D117F9
:100970003707002013074701BA978C23EFF08FF554
:1009800008C86FF08FF25C43B777DC02938707C02B
:1009900061B799C5371702401C4F5D8D08CF828023
:1009A000B7170240984F1345F5FF798D88CF8280A5
:1009B000EFF20FEF1629F577FD17F58FF621DA25FF
:1009C0002111D58F1EA95625FD779387379FF58F67
:1009D000D6212A842EC0D58F9625D58FB625D58FC2
:1009E0005EA55E29C207C18393F7F7CF5D8F5AA931
:1009F00048001137B747014093870780824563124B
:100A0000F406C2475A24139517003E9542070E0577
:100A100041873E958C41635807048605EFF08FEBC4
:100A2000930540062AC0EFF0EFEA82479314450091
:100A3000930540063E85EFF0AFEC5E24C207C18708
:100A400063D507020E059305400613052503EFF055
:100A50006FE81D89C98CC204C18006A461016FF0D2
:100A6000CFE4B24745B78A0555BF12059305400646
:100A700013052503EFF00FE63D89E9BF91C55E251B
:100A80000967D98F5EA582805A25F977FD17F98FFE
:100A9000D5BF93F5F51F4EA182804A211375F51F2E
:100AA00082800A216D8D3335A0008280EFF24FDF06
:100AB000B707002003A50701B7157A009385052025
:100AC000EFF04FE11375F50F2381A18293175500C5
:100AD000898F8A073E950E052390A1826FF0EFDC87
:100AE000EFF20FDC37F400E05C40AA85F99B5CC0B4
:100AF00003C52182EFF00FDC08C8232404001C404A
:100B000093E717001CC0B7F700E0D843058B75DFEB
:100B10009843799B98C36FF04FD9EFF26FD837F4B1
:100B200000E05C40AA85F99B5CC003D50182EFF030
:100B30006FD808C8232404001C4093E717001CC08A
:100B4000B7F700E0D843058B75DF9843799B98C3CE
:100B50006FF0AFD5EFF2CFD42A841165111185451E
:100B6000130505023D35930700027C8037150140CF
:100B70008D473EC28A85E147130505403EC4593181
:100B800022C637440140B70708006C0013050480F3
:100B90003ECA02C8231C0100213D8545130504807F
:100BA000F13D71016FF06FD0EFF28FCF7111AE8414
:100BB0000144635DC402B7470140138707803A854B
:100BC0009305000432C0F13DB74701401387078009
:100BD000024675D533878400830507001385078097
:100BE0000504C205C18175350246E1B732851101A0
:100BF0006FF0AFCB411106C62EC00DCD1841AA87AC
:100C000005C358417D5511CB8546631BD7009847D6
:100C10002300070023A207000545B240410182805E
:100C20009847824614A39847050798C7D8437D176D
:100C3000D8C3DDB705468A85853FF9BF011122CCAF
:100C40002EC206CE26CA2A84814793050002634538
:100C500006029245BE95838505008DE563D8C702DF
:100C600063D4E702198E1305000293F526002AC00B
:100C700089C501E7930500032EC0858A814495EA62
:100C8000B2840DA08507F1B71D8EF1BF0146E1BF0B
:100C9000824522853AC832C63EC4A93FA2473246A1
:100CA0004247FD14E34690FEB2846353060081443C
:100CB000058E63C7E702A68792463387974036972B
:100CC0008305070095EDB2846344900463530600E6
:100CD0000146F2406244D2443305F6000561828049
:100CE0001D8FBA8793050003228532C83EC63AC4D9
:100CF0001137B24722474246FD17EDF7BA9465BF58
:100D0000228532C63EC4FD35A247324685076DB7FF
:100D10008245228532C43EC2F13DFD1422469247EF
:100D200065B7397106DE22DC26DA3EC232833A86A6
:100D300089ED92469307000301476C08FC86FD3D50
:100D4000F2506254D25421618280AA843684AE87E4
:100D500091CA294701446317E30063D50500B3072F
:100D6000B04005448646A309010213073103938668
:100D700066FC36C49A853E8532CA3AC81AC63EC059
:100D8000EFF00FB8A546824732434247524663D43C
:100D9000A600A2463695130505039306F7FFA30F99
:100DA000A7FE9A853E8532CC3ACA1AC83EC636C0DE
:100DB000EFF04FB2B24742435247624663F96704CD
:100DC00001CC29CA9247898BB1C79305D0022685E9
:100DD00032C40D3522467D169247918B95C3064746
:100DE0009307100632C4930500032685631EF7029D
:100DF0001135930580072685F53B224609047916AF
:100E00001647924682452685153D229515BFAA872D
:100E100002478DB782469307D0020144A38FF6FEA6
:100E20009307E7FF3EC04DBFF13393058005E1B75F
:100E30000145828001458280130181FD22D026CEAA
:100E400006D22AC4AE82328402C68144838502005F
:100E500089EDA24781C781453E85693B9250025486
:100E60002685F24413018102828093075002638831
:100E7000F500224516C88504B53BC24239A88387D0
:100E8000120013871200639CB7002245930550029D
:100E90003AC88D3342478504BA82850245BFD5DB07
:100EA0009306B0026389D70463C8F6009306300244
:100EB0006386D704814705A09306D002638AD700D2
:100EC00093060003E398D7FE13872200894721A0E9
:100ED000138722008547830607001306B002638349
:100EE000C6046341D60213063002638BC602BA827F
:100EF0000145A54681A0138722006DBF13872200FC
:100F00009147D1BF1306D0026389C60013060003C0
:100F1000E39FC6FC93E7270031A005078547C1BFC3
:100F200093E747000507E1B713162500329506053C
:100F30003A95850203860200130706FD9375F70FA5
:100F4000E3F4B6FE1307E0029946631EE60085024D
:100F50008146A54503860200130606FD1377F60FAA
:100F600063F5E50236C6038702001306A006630D8B
:100F7000C70A6343E6021306C0046307C70A1306E1
:100F80008006630CC70881452DA813972600BA96E2
:100F90008606B29685027DBF130640076306C70822
:100FA0001306A0076302C7081306C0068145631A2B
:100FB000C700038612008D456314E6008502914543
:100FC000850203860200930300061307100663C41C
:100FD000C300130710049303700663C4C30693038E
:100FE0005006635476189303700463C1C3049305D9
:100FF0005004635CB61613073004E310E6EA1840A9
:101000009303440016CA230CE1001EC8A30C010080
:101010000147BE862A862C0849A80386120081450E
:10102000E311E6FA890271BF8502B1BF930630066B
:10103000E307D6FC63CFC606930680056303D6029A
:10104000A9BD930630076304D60463CBC60293069A
:10105000F0066303D60E9306000793E74700E31EEE
:10106000D6E291466390D50C930384000C40504027
:1010700016CA3AC23EC01EC8AA870147C14681A807
:10108000930650076309D6069306800745BF1840AC
:10109000B7160000930344009385864811C3BA85B0
:1010A000324716CA1EC8BE862A862245EFF01FB9EF
:1010B0000DA091466394D502930384000C405040E8
:1010C00016CA3AC23EC01EC8AA870547A94622458D
:1010D0008533C243AA941E84D242C1B3B2460C40A7
:1010E00016C836C23AC011042A87854629462245C9
:1010F0000D39AA9459B39146639DD500930384009A
:101100000C40504016CA3AC23EC01EC8AA870147CA
:1011100075BFB2460C4016C836C23AC011042A87C1
:101120008146E9B7B24616C80C40414636C23AC0BD
:1011300011042A87814665BF9146639ED5009303BB
:1011400084000C40504016CA3AC23EC01EC8AA874E
:101150000147A146ADBFB2460C4016C836C23AC0E0
:1011600011042A878146214659B70C401306840092
:1011700040403AC22A87224532C83EC02286B687FE
:10118000A94616CA4539AA944244B9B71301C1FD0C
:101190002EC832CAAA851008014506C636CC3ACEFA
:1011A0003ED032C05139B240130141028280130156
:1011B00041FD32CE3ED42AC67008FD57480006CC09
:1011C00036D03AD202C23EC432C0BD31E240130131
:1011D000C1028280411122C426C206C61C21AA84F3
:1011E0000144DC8183073100050499EFA947930589
:1011F000310005460145DC81EFF01F9B2285B2409E
:101200002244924441018280054693053100014504
:10121000EFF09F99B38784009C23DC81E1B703251D
:10122000C50E828097F7FF1F938747FE9C439C5310
:1012300089E797F7FF1F938767E003A5C70E8280B2
:1012400091ED71118A85014501CA795591C61C221B
:101250009CC108223335A00011018280014509CAD2
:10126000795599C61C229CC108223335A000828082
:101270008280AA87850703C7F7FF6DFF3385A740E4
:101280007D158280AA8709CA850503C7F5FF8507F2
:101290007D16A38FE7FE65FB3E966393C7008280B1
:1012A0008507A38F07FED5BF130141FD26D006D4C5
:1012B00022D22AC62EC032C2AE84138414008347C1
:1012C000F4FF3A8536CA3EC83AC4913FC247224726
:1012D000D2463E950C31A189E1E11307D002639F0C
:1012E000E70A1C20054613842400638C061041473E
:1012F0006390E60213070003639CE7001C201307BA
:10130000800593F7F70D6399E70E1C30C146090479
:10131000B704008019E293C4F4FFB68526853ECC5D
:1013200032CA36C8EFE0DFDDC2462AC42685B6855C
:10133000EFE05FDAE2475246C246AA8281450145A4
:101340006547938307FD2543637873009383F7FB19
:1013500063607706938397FC63D3D306FD57638955
:10136000F502FD5563E6A2026395A200A24763C1A0
:101370007702AA8536851ECE16CC32CA36C8EFE073
:101380007FD3F243E2425246C2461E9585456547E9
:1013900005048347F4FF75B7A28405B71307B002AD
:1013A0006384E700014691B71C2013842400DDBF4D
:1013B0009383F7F963657700938397FA71BFFD57BD
:1013C000639FF50032479307200226851CC392478E
:1013D00089EFA250125482541301C102828019C2B3
:1013E0003305A0409247F5D781C59307F4FF3EC06F
:1013F0009247024798C3F1BF9307000391FAA146B1
:1014000001BF13070003E38BE7EEA94611B797F777
:10141000FF1F9387A7DF9C43B286985309E717F70E
:10142000FF1F1307A7C12E86AA853E85B5BD89CDAE
:101430009307F00F63F7C7009307A0081CC17D5501
:10144000828090A105458280014582804500000090
:101450002530366C580A00002573000025303258BC
:101460000A00000030000000464C41534820426111
:101470006B65722076312E3020286669726D3A765F
:10148000312E302900000000286E756C6C29000098
:1014900043000000504F5349580000002E00000048
:1014A0000020202020202020202028282828282034
:1014B000202020202020202020202020202020202C
:1014C0002088101010101010101010101010101094
:1014D0001004040404040404040404101010101084
:1014E000101041414141414101010101010101014E
:1014F00001010101010101010101010110101010A0
:10150000101042424242424202020202020202021F
:101510000202020202020202020202021010101073
:10152000200000000000000000000000000000009B
:1015300000000000000000000000000000000000AB
:10154000000000000000000000000000000000009B
:10155000000000000000000000000000000000008B
:10156000000000000000000000000000000000007B
:10157000000000000000000000000000000000006B
:10158000000000000000000000000000000000005B
:10159000000000000000000000000000000000004B
:0415A0000000000047
:1015A40001020304050607080102030405060708EF
:1015B400006CDC020204060804080C100810182051
:1015C4001020304020406080010203040506070813
:1015D40001020304050607084300000000000000A0
:1015E40000000000000000000000000000000000F7
:1015F40000000000000000004300000000000000A4
:1016040000000000000000000000000000000000D6
:101614000000000000000000430000000000000083
:1016240000000000000000000000000000000000B6
:101634000000000000000000430000000000000063
:101644000000000000000000000000000000000096
:101654000000000000000000430000000000000043
:101664000000000000000000000000000000000076
:101674000000000000000000430000000000000023
:101684000000000000000000000000000000000056
:101694000000000000000000430000000000000003
:1016A4000000000000000000000000000000000036
:1016B40000000000000000002E1400004012000092
:1016C40000000000A01400009C140000841400001A
:1016D40084140000841400008414000084140000A6
:1016E4008414000084140000841400008414000096
:1016F400FFFFFFFFFFFFFFFFFFFFFFFFFFFF0000F4
:10170400010041534349490000000000000000006B
:1017140000000000000000000000000000000000C5
:10172400000041534349490000000000000000004C
:1017340000000000000000000000000000000000A5
:101744000000000000000000000000000000000095
:101754000000000000000000000000000000000085
:101764000000000000000000000000000000000075
:101774000000000000000000000000000000000065
:101784000000000000000000000000000000000055
:101794000000000000000000000000000000000045
:1017A4000000000000000000A40100200000000070
:00000001FF
