:100000006F000068000000004A0100004E0100007F
:1000100000000000000000000000000000000000E0
:1000200000000000000000000000000000000000D0
:100030004E06000000000000500600000000000016
:100040005206000054060000560600005806000044
:100050005A0600005C0600005E0600006006000014
:1000600062060000640600006606000068060000E4
:100070006A0600006C0600006E06000070060000B4
:100080007206000074060000760600007806000084
:100090007A0600007C0600007E06000000000000DA
:1000A000511126C022C206C4828282441244A24058
:1000B000310182802A86014593F6150091C232955E
:1000C00085810606F5F9828000000000634E050276
:1000D00063C305042E86AA857D5515C285466378BF
:1000E000B6006356C00006068606E36CB6FE014500
:1000F00063E4C500918D558D85820582F5FA828075
:100100008682C93F2E8582823305A04063D70500D1
:10011000B305B040C1B7B305B0408682653F330533
:10012000A0408282868263C70500634905005D376F
:100130002E858282B305B040E35B05FE3305A04007
:10014000513F3305B040828200007300203001A08F
:10015000EFF21FF51165111185451305050202C067
:1001600002C202C402C602C802CA02CCEF00A072D8
:10017000930700027C80371401408D473EC28A8578
:10018000E147130504403EC4EF00C0579307000445
:100190007C808A859147130504403EC4EF00805659
:1001A000F16737440140938707203EC66C00B707CC
:1001B0000C00130504803ECA02C8231C0100EF0096
:1001C000606F854513050480EF00807B7101F1BDF0
:1001D000EFF21FED5111FD577C8089473EC28A85A1
:1001E000C147371501403EC423110100212B3101C5
:1001F0006DBDEFF2FFEA5111FD577C8089473EC289
:100200008A859147371501403EC423110100DD293D
:10021000310161BDEFF2DFE82A8637150140C145A3
:1002200013050540EF00E05B49B5EFF27FE72A8652
:1002300037150140914513050580EF00805AB5B58B
:10024000EFF21FE62A863715014085451305054064
:10025000EF00205999BDEFF2BFE42A86371501401F
:100260009305000813050540EF00A0573DBDEFF2D0
:100270003FE32A86371501408945130505809523FC
:100280002DB5EFF2FFE12A8637150140A145130590
:100290000540812B19BDEFF2BFE0511185451305D3
:1002A0004003EF00405FB1373714014099478A851A
:1002B0007C80C1448947130504803EC226C42311B3
:1002C000010089210545B937014555371307D00984
:1002D00089478A851305044078803EC226C41D21C3
:1002E0000545A1370545713F0145993F0145A537B2
:1002F000310165BBEFF2DFDA71112AC00545193F04
:1003000005452537F135824537150140C52105459D
:1003100099370545A93F054525370545EF00806C10
:100320000145393FF935110149B3EFF27FD72A84EE
:100330000545CD350545D53D613D93150401C18188
:100340003715014065210545393705450D37054508
:10035000EF0040690145213F693D81BBEFF25FD469
:100360002A840545453D0545C9359D35931504014C
:10037000C181371501409D290545F13D0545EF0037
:1003800060660145C93DB5350DB3EFF27FD12A84D2
:100390001375F50F593F135584001375F50F7D3F05
:1003A0003715014001469145130505401D29F5B952
:1003B000EFF21FCFD93F353D0545853D0545D13588
:1003C0000145893D3715014009292A84054599359C
:1003D0002285E1B9EFF2DFCC71112A8405452EC0E8
:1003E0004D350545053D82452E8529372285713FCE
:1003F000093501451D3D0145693513054006DD23DD
:100400000545413513054006F12B0545393D1305DA
:100410004006C92B110151B9EFF29FC815641305AD
:1004200054559305A00A7D378D641385A4AA9305BE
:1004300050054D371305545593050008613F1305CA
:1004400054559305A00A79371385A4AA930550053E
:100450005137C14513055455B53F1305401FD123EE
:10046000A9B1EFF2FFC309456126952A352B7165C5
:1004700013050520F523B707002083A507013715CD
:1004800000001305C50BEF003041D931293569371C
:100490000145393FAA85371500001305C50CEF004B
:1004A000B03F05453137AA85371500001305C50D46
:1004B000EF00903E0945ED3DAA8537150000130574
:1004C000C50EEF00703D0D45E535AA8537150000D6
:1004D0001305C50FEF00503C1145D93DAA853715CE
:1004E00000001305C510EF00303B1545D135AA8536
:1004F000371500001305C511EF00103A19454D3DA1
:10050000AA85371500001305C512EF00F0381D4508
:100510004535AA85371500001305C513EF00D03700
:1005200001A0B71702409843B706FFFC13671700F6
:1005300098C3D843758FD8C39843B706F7FEFD1606
:10054000758F98C39843B706FCFFFD16758F98C347
:10055000D843C176FD16758FD8C337079F0098C75B
:10056000984F1367070298CF3717014003260740BB
:10057000930507401376F6F02320C7400326074073
:10058000136606082320C740094798C93727024049
:100590001043719A10C310431366160010C3D8435A
:1005A000D8C3D843F98ED4C3D843B7060001D8C303
:1005B0009843558F98C3984393166700E3DD06FE72
:1005C000D843B7160240719BD8C3D843136727009E
:1005D000D8C32147DC42B18BE39EE7FE8280EFF275
:1005E0003FAC371702405C43370400209146B18B83
:1005F000130404016385D700A1466382D704B7378B
:100600006E01938707601CC0B7160240DC420840A9
:10061000918313F7F700B707002093870700BA9775
:100620008C23DC4293F5F50F93F707083357B50099
:1006300081E7EFF03FAA2A8718C06FF01FA75C433D
:10064000B777DC02938707C07DBF01A001A001A09E
:1006500001A001A001A001A001A001A001A001A092
:1006600001A001A001A001A001A001A001A001A082
:1006700001A001A001A001A001A001A001A001A072
:10068000970100209381811B138181FC17150000C5
:10069000130585AC970500209385C59617060020A5
:1006A0001306C69963FAC5008322050023A05500EE
:1006B00011059105E3EAC5FE17050020130505980D
:1006C000938581806377B500232005001105E36DD4
:1006D000B5FE93020008739002308D427390428001
:1006E000970200009382029293E23200739052309C
:1006F000EFF03FE3970200009382E2D6739012344A
:10070000730020309C45611122C226C013F70701F7
:1007100013F3F70001C7D8413363E3009221137745
:10072000F60F29C7832305000147130480029304B1
:1007300080048546B395E600B376B6006392D50291
:1007400093122700BD46B396560093C6F6FFB3F347
:100750007600B3125300B3E37200639787064CC967
:100760000507A146E317D7FC232075001307F00FF8
:100770006378C70483234500A146130480029304D1
:1007800080040547B312D700337756006394E20222
:10079000139726000117BD45B395E50093C5F5FFF6
:1007A000B3F375003317E300B363770063928702F6
:1007B000232A550085064147E395E6FC2322750070
:1007C0001244824421018280E39C97F80CC949BFFE
:1007D000E39297FE23285500F1BF08454205418169
:1007E000828019C20CC982804CC982804CC582802B
:1007F000B707002023ACA7028280EFF27F8A371769
:1008000002405C4391462A84B18B6385D700A146A0
:10081000638DD706B7376E01938707601CC0B71684
:100820000240DC42918313F7F700B707002093875B
:100830008702BA978C23DC42184093F5F50F93F7A3
:1008400007083355B70081E73A85EFF0BF8848C005
:1008500008C448C4B7170240DC43AD83FD8B13D7EF
:1008600037008A07F18BD98F93F637010D476373F1
:10087000D700D1173707002013074701BA978C23F9
:10088000EFF05F8508C86FF05F825C43B777DC02EA
:10089000938707C061B799C5371702401C4F5D8D1C
:1008A00008CF8280B7170240984F1345F5FF798D26
:1008B00088CF8280EFF2CFFE1629F577FD17F58FEE
:1008C000F621DA252111D58F1EA95625FD779387AC
:1008D000379FF58FD6212A842EC0D58F9625D58FA8
:1008E000B625D58F5EA55E29C207C18393F7F7CFE2
:1008F0005D8F5AA948001137B74701409387078099
:1009000082456312F406C2475A24139517003E9598
:1009100042070E0541873E958C41635807048605C2
:10092000EFF04FFB930540062AC0EFF0AFFA824785
:1009300093144500930540063E85EFF06FFC5E245E
:10094000C207C18763D507020E059305400613054C
:100950002503EFF02FF81D89C98CC204C18006A4BD
:1009600061016FF08FF4B24745B78A0555BF120594
:100970009305400613052503EFF0CFF53D89E9BF48
:1009800091C55E250967D98F5EA582805A25F977C2
:10099000FD17F98FD5BF93F5F51F4EA182800A216F
:1009A0006D8D3335A0008280EFF28FEFB707002006
:1009B00003A50701B7157A0093850520EFF08FF1A5
:1009C0001375F50FB7070020238FA7029317550063
:1009D000898F8A073E950E05B7070020239EA70240
:1009E0006FF0AFECEFF2CFEB37F400E05C40AA859C
:1009F000F99B5CC0B707002003C5E703EFF08FEB5E
:100A000008C8232404001C4093E717001CC0B7F754
:100A100000E0D843058B75DF9843799B98C36FF04E
:100A2000CFE8EFF2EFE737F400E05C40AA85F99BEE
:100A30005CC0B707002003D5C703EFF0AFE708C8D5
:100A4000232404001C4093E717001CC0B7F700E004
:100A5000D843058B75DF9843799B98C36FF0EFE41B
:100A6000EFF20FE42A841165111185451305050283
:100A70001D35930700027C80371501408D473EC22B
:100A80008A85E147130505403EC4AD3922C6374487
:100A90000140B70708006C00130504803ECA02C875
:100AA000231C0100013D854513050480D13D7101E2
:100AB0006FF0AFDFEFF2CFDE7111AE840144635D02
:100AC000C402B7470140138707803A8593050004A5
:100AD00032C0F135B747014013870780024675D50C
:100AE0003387840083050700138507800504C2054A
:100AF000C18155350246E1B7328511016FF0EFDA59
:100B0000411106C62EC00DCD1841AA8705C3584114
:100B10007D5511CB8546631BD700984723000700FE
:100B200023A207000545B2404101828098478246D2
:100B300014A39847050798C7D8437D17D8C3DDB7D6
:100B400005468A85853FF9BF011122CC2EC206CE0B
:100B500026CA2A848147930500026345060292450E
:100B6000BE95838505008DE563D8C70263D4E7028F
:100B7000198E1305000293F526002AC089C501E7E6
:100B8000930500032EC0858A814495EAB2840DA0A6
:100B90008507F1B71D8EF1BF0146E1BF8245228571
:100BA0003AC832C63EC4A93FA24732464247FD1466
:100BB000E34690FEB284635306008144058E63C70A
:100BC000E702A6879246338797403697830507004A
:100BD00095EDB28463449004635306000146F240ED
:100BE0006244D2443305F600056182801D8FBA87C6
:100BF00093050003228532C83EC63AC41137B24776
:100C000022474246FD17EDF7BA9465BF228532C6EA
:100C10003EC4FD35A247324685076DB78245228521
:100C200032C43EC2F13DFD142246924765B7397188
:100C300006DE22DC26DA3EC232833A8689ED92460F
:100C40009307000301476C08FC86FD3DF250625497
:100C5000D25421618280AA843684AE8791CA294702
:100C600001446317E30063D50500B307B0400544B2
:100C70008646A309010213073103938666FC36C436
:100C80009A853E8532CA3AC81AC63EC0EFF04FC7B1
:100C9000A546824732434247524663D4A600A24645
:100CA0003695130505039306F7FFA30FA7FE9A8554
:100CB0003E8532CC3ACA1AC83EC636C0EFF08FC164
:100CC000B24742435247624663F9670401CC29CADE
:100CD0009247898BB1C79305D002268532C40D3562
:100CE00022467D169247918B95C3064793071006BF
:100CF00032C4930500032685631EF7021135930560
:100D000080072685F53B2246090479161647924648
:100D100082452685153D229515BFAA8702478DB7C6
:100D200082469307D0020144A38FF6FE9307E7FFA4
:100D30003EC04DBFF13393058005E1B70145828088
:100D400001458280130181FD22D026CE06D22AC41D
:100D5000AE82328402C681448385020089EDA247B7
:100D600081C781453E85693B925002542685F244F5
:100D7000130181028280930750026388F5002245A7
:100D800016C88504B53BC24239A883871200138771
:100D90001200639CB7002245930550023AC88D3378
:100DA00042478504BA82850245BFD5DB9306B0026F
:100DB0006389D70463C8F600930630026386D704BC
:100DC000814705A09306D002638AD70093060003EB
:100DD000E398D7FE13872200894721A013872200BA
:100DE0008547830607001306B0026383C604634188
:100DF000D60213063002638BC602BA820145A546AD
:100E000081A0138722006DBF138722009147D1BFB5
:100E10001306D0026389C60013060003E39FC6FCD5
:100E200093E7270031A005078547C1BF93E7470037
:100E30000507E1B713162500329506053A95850298
:100E400003860200130706FD9375F70FE3F4B6FE61
:100E50001307E0029946631EE60085028146A54518
:100E600003860200130606FD1377F60F63F5E5020D
:100E700036C6038702001306A006630DC70A634344
:100E8000E6021306C0046307C70A13068006630C54
:100E9000C70881452DA813972600BA968606B296F4
:100EA00085027DBF130640076306C7081306A00727
:100EB0006302C7081306C0068145631AC70003868C
:100EC00012008D456314E600850291458502038674
:100ED0000200930300061307100663C4C300130740
:100EE00010049303700663C4C3069303500663544F
:100EF00076189303700463C1C30493055004635CC4
:100F0000B61613073004E310E6EA184093034400D2
:100F100016CA230CE1001EC8A30C01000147BE86BF
:100F20002A862C0849A8038612008145E311E6FAB7
:100F3000890271BF8502B1BF93063006E307D6FC74
:100F400063CFC606930680056303D602A9BD930648
:100F500030076304D60463CBC6029306F00663032E
:100F6000D60E9306000793E74700E31ED6E29146AC
:100F70006390D50C930384000C40504016CA3AC2CB
:100F80003EC01EC8AA870147C14681A893065007E4
:100F90006309D6069306800745BF1840B7160000C0
:100FA000930344009385C61411C3BA85324716CA09
:100FB0001EC8BE862A862245EFF01FB90DA09146B5
:100FC0006394D502930384000C40504016CA3AC281
:100FD0003EC01EC8AA870547A94622458533C2439D
:100FE000AA941E84D242C1B3B2460C4016C836C27F
:100FF0003AC011042A878546294622450D39AA940C
:1010000059B39146639DD500930384000C40504032
:1010100016CA3AC23EC01EC8AA87014775BFB2466B
:101020000C4016C836C23AC011042A878146E9B777
:10103000B24616C80C40414636C23AC011042A874F
:10104000814665BF9146639ED500930384000C40A2
:10105000504016CA3AC23EC01EC8AA870147A146E0
:10106000ADBFB2460C4016C836C23AC011042A873A
:101070008146214659B70C401306840040403AC2CD
:101080002A87224532C83EC02286B687A94616CA9C
:101090004539AA944244B9B71301C1FD2EC832CADA
:1010A000AA851008014506C636CC3ACE3ED032C0DD
:1010B0005139B240130141028280000053797374A8
:1010C000656D436C6B3A25640D0A00003078303052
:1010D000303030303A253032780A00003078303005
:1010E000303030313A253032780A000030783030F4
:1010F000303030323A253032780A000030783030E3
:10110000303030333A253032780A000030783030D1
:10111000303030343A253032780A000030783030C0
:10112000303030353A253032780A000030783030AF
:10113000303030363A253032780A0000307830309E
:10114000303030373A253032780A0000286E756C1E
:041150006C29000006
:101154000102030405060708010203040506070843
:10116400006CDC020204060804080C1008101820A5
:101174001020304020406080010203040506070867
:0811840001020304050607083F
:00000001FF
